:100000000C945C000C946E000C946E000C946E00CA
:100010000C946E000C946E000C946E000C946E00A8
:100020000C946E000C946E000C946E000C946E0098
:100030000C946E000C946E000C946E000C946E0088
:100040000C9416010C946E000C946E000C946E00CF
:100050000C946E000C946E000C946E000C946E0068
:100060000C946E000C946E00000000002400270029
:100070002A0000000000250028002B0004040404CE
:100080000404040402020202020203030303030342
:10009000010204081020408001020408102001021F
:1000A00004081020000000080002010000030407FB
:1000B000000000000000000011241FBECFEFD8E0B8
:1000C000DEBFCDBF21E0A0E0B1E001C01D92AB30AA
:1000D000B207E1F70E9460010C9423020C94000027
:1000E00090E0FC01EC55FF4F2491FC01E057FF4FDD
:1000F0003491FC01E458FF4FE491EE23C9F0222330
:1001000039F0233001F1A8F4213019F1223029F11E
:10011000F0E0EE0FFF1FEE58FF4FA591B4918FB79F
:10012000F894EC91611126C030953E233C938FBF2B
:1001300008952730A9F02830C9F0243049F780917C
:1001400080008F7D03C0809180008F778093800036
:10015000DFCF84B58F7784BDDBCF84B58F7DFBCFB8
:100160008091B0008F778093B000D2CF8091B000A3
:100170008F7DF9CF3E2BDACF3FB7F89480910701FE
:1001800090910801A0910901B0910A0126B5A89BA0
:1001900005C02F3F19F00196A11DB11D3FBFBA2F19
:1001A000A92F982F8827BC01CD01620F711D811DD9
:1001B000911D42E0660F771F881F991F4A95D1F75E
:1001C00008958F929F92AF92BF92CF92DF92EF925B
:1001D000FF920E94BC004B015C0184E6C82ED12C2A
:1001E000E12CF12C0E94BC00681979098A099B094D
:1001F000683E734081059105A8F321E0C21AD10839
:10020000E108F10888EE880E83E0981EA11CB11C5D
:10021000C114D104E104F10429F7FF90EF90DF90BD
:10022000CF90BF90AF909F908F9008951F920F92A4
:100230000FB60F9211242F933F938F939F93AF93F9
:10024000BF938091030190910401A0910501B091A9
:1002500006013091020123E0230F2D3758F5019656
:10026000A11DB11D2093020180930301909304010D
:10027000A0930501B09306018091070190910801B8
:10028000A0910901B0910A010196A11DB11D8093B1
:10029000070190930801A0930901B0930A01BF914F
:1002A000AF919F918F913F912F910F900FBE0F9023
:1002B0001F90189526E8230F0296A11DB11DD2CFDD
:1002C000789484B5826084BD84B5816084BD85B531
:1002D000826085BD85B5816085BD80916E0081603D
:1002E00080936E00109281008091810082608093E3
:1002F00081008091810081608093810080918000E5
:100300008160809380008091B10084608093B1000F
:100310008091B00081608093B00080917A00846009
:1003200080937A0080917A00826080937A00809135
:100330007A00816080937A0080917A00806880934F
:100340007A001092C10081E090E0909301018093C7
:1003500000018091000190910101873091052CF1FD
:1003600002E010E0EE24E394F12C50E0C52E50E0C2
:10037000D52E1093010100930001C0910001D0918E
:100380000101C730D1050CF03CC061E08C2F0E9408
:1003900070000E94E10060E08C2F0E9470002296A5
:1003A000D0930101C0930001E8CF9927FC01E057E9
:1003B000FF4F249184589F4FFC018491882399F02A
:1003C00090E0880F991FFC01E859FF4FA591B49167
:1003D000FC01EE58FF4F859194918FB7F894EC9102
:1003E000E22BEC938FBFC0910001D091010160E03E
:1003F0008C2F0E9470002196D0930101C0930001C0
:10040000A8CFF0920101E0920001C0910001D091CB
:100410000101C630D10584F461E08C2F0E94700088
:100420000E94E10060E08C2F0E9470002296D09321
:100430000101C0930001E9CFC114D10409F499CF9F
:0A0440000E94000096CFF894FFCF51
:00000001FF
