:100000000C945C000C946E000C946E000C946E00CA
:100010000C946E000C946E000C946E000C946E00A8
:100020000C946E000C946E000C946E000C946E0098
:100030000C946E000C946E000C946E000C946E0088
:100040000C9483010C946E000C946E000C946E0062
:100050000C946E000C946E000C946E000C946E0068
:100060000C946E000C946E00000000002400270029
:100070002A0000000000250028002B0004040404CE
:100080000404040402020202020203030303030342
:10009000010204081020408001020408102001021F
:1000A00004081020000000080002010000030407FB
:1000B000000000000000000011241FBECFEFD8E0B8
:1000C000DEBFCDBF21E0A0E0B1E001C01D92AB30AA
:1000D000B207E1F70E94CD010C944F020C9400008E
:1000E000EFEAF0E02491EBE9F0E09491E7E8F0E04A
:1000F000E491EE23C9F0222339F0233001F1A8F472
:10010000213019F1223029F1F0E0EE0FFF1FEE58F7
:10011000FF4FA591B4912FB7F894EC91811126C0AF
:1001200090959E239C932FBF08952730A9F02830E7
:10013000C9F0243049F7209180002F7D03C0209121
:1001400080002F7720938000DFCF24B52F7724BD48
:10015000DBCF24B52F7DFBCF2091B0002F772093EC
:10016000B000D2CF2091B0002F7DF9CF9E2BDACFF7
:10017000EBE9F0E02491E7E8F0E08491882399F03E
:1001800090E0880F991FFC01E859FF4FA591B491A9
:10019000FC01EE58FF4F859194918FB7F894EC9144
:1001A000E22BEC938FBF0895CF93DF93EC010E9475
:1001B000B800209729F480E0DF91CF910C94700073
:1001C000CF3FD10511F481E0F7CFEFEAF0E0E49101
:1001D000E33029F140F4E130B1F0E230D9F0C03839
:1001E000D1058CF7E8CFE73021F1E83051F1E43068
:1001F000B1F780918000806280938000D0938B0063
:10020000C0938A0004C084B5806884BDC7BDDF91F7
:10021000CF91089584B5806284BDC8BDF8CF809128
:100220008000806880938000D0938900C09388000C
:10023000EECF8091B00080688093B000C093B3008F
:10024000E6CF8091B00080628093B000C093B4008C
:10025000DECF3FB7F8948091070190910801A091FB
:100260000901B0910A0126B5A89B05C02F3F19F0DE
:100270000196A11DB11D3FBFBA2FA92F982F882726
:10028000BC01CD01620F711D811D911D42E0660F01
:10029000771F881F991F4A95D1F708958F929F92D3
:1002A000AF92BF92CF92DF92EF92FF920E9429010C
:1002B0004B015C018AE0C82ED12CE12CF12C0E946C
:1002C0002901681979098A099B09683E73408105EB
:1002D0009105A8F321E0C21AD108E108F10888EEDF
:1002E000880E83E0981EA11CB11CC114D104E10446
:1002F000F10429F7FF90EF90DF90CF90BF90AF907F
:100300009F908F9008951F920F920FB60F92112415
:100310002F933F938F939F93AF93BF93809103014C
:1003200090910401A0910501B09106013091020164
:1003300023E0230F2D3758F50196A11DB11D209301
:1003400002018093030190930401A0930501B093EF
:1003500006018091070190910801A0910901B091D7
:100360000A010196A11DB11D809307019093080118
:10037000A0930901B0930A01BF91AF919F918F9112
:100380003F912F910F900FBE0F901F90189526E868
:10039000230F0296A11DB11DD2CF789484B582603F
:1003A00084BD84B5816084BD85B5826085BD85B519
:1003B000816085BD80916E00816080936E00109297
:1003C0008100809181008260809381008091810012
:1003D00081608093810080918000816080938000A3
:1003E0008091B10084608093B1008091B000816001
:1003F0008093B00080917A00846080937A0080912D
:100400007A00826080937A0080917A008160809384
:100410007A0080917A00806880937A001092C100FF
:100420000E94B80090E080E00E94D4000CE211E04D
:1004300080E0E82E80E0F82E109201011092000179
:10044000C0910001D0910101CF3FD10509F05CF4CA
:10045000CE010E94D4000E944E012196D09301014A
:10046000C0930001EDCF1093010100930001C091F2
:100470000001D09101011C161D065CF4CE010E9402
:10048000D4000E944E012197D0930101C093000136
:10049000EECFE114F10481F20E940000CDCFF89478
:0204A000FFCF8C
:00000001FF
