:100000000C9463000C948B000C948B000C948B006C
:100010000C948B000C948B000C948B000C94C602F7
:100020000C948B000C948B000C948B000C948B0024
:100030000C948B000C948B000C948B000C948B0014
:100040000C947C020C948B000C946E030C9448036B
:100050000C948B000C948B000C948B000C948B00F4
:100060000C948B000C948B000000000023002600F1
:1000700029000200000000240027002A00000000E0
:1000800000250028002B00040404040404040402D6
:100090000202020202030303030303010204081025
:1000A00020408001020408102001020408102000F2
:1000B0000000080002010000030407000000000027
:1000C000000000000A0611241FBECFEFD8E0DEBFFB
:1000D000CDBF11E0A0E0B1E0E6E9FFE002C005908D
:1000E0000D92A632B107D9F721E0A6E2B1E001C036
:1000F0001D92AF3DB207E1F710E0C3E6D0E004C0C7
:100100002197FE010E94C307C236D107C9F70E949A
:10011000E5030C94C9070C94000090E0FC01E15544
:10012000FF4F2491FC01E556FF4F3491FC01E95744
:10013000FF4FE491EE23C9F0222339F0233001F17F
:10014000A8F4213019F1223029F1F0E0EE0FFF1F61
:10015000E358FF4FA591B4918FB7F894EC916111DA
:1001600026C030953E233C938FBF08952730A9F0D9
:100170002830C9F0243049F7809180008F7D03C07A
:10018000809180008F7780938000DFCF84B58F7758
:1001900084BDDBCF84B58F7DFBCF8091B0008F779E
:1001A0008093B000D2CF8091B0008F7DF9CF3E2BED
:1001B000DACFCF93DF9390E0FC01E556FF4F249117
:1001C00089579F4FFC0184918823D1F090E0880FDC
:1001D000991FFC01ED58FF4FA591B491FC01E35824
:1001E000FF4FC591D49161110EC09FB7F8948C91C7
:1001F000E22FE0958E238C932881E223E8839FBF32
:10020000DF91CF9108958FB7F894EC91E22BEC93A6
:100210008FBFF6CF3FB7F89480913E0190913F0198
:10022000A0914001B091410126B5A89B05C02F3F88
:1002300019F00196A11DB11D3FBFBA2FA92F982F0C
:100240008827BC01CD01620F711D811D911D42E007
:10025000660F771F881F991F4A95D1F708958F92CF
:100260009F92AF92BF92CF92DF92EF92FF926B017B
:100270007C010E940A014B015C01C114D104E1041C
:10028000F104B9F00E940A01681979098A099B09E9
:10029000683E73408105910580F321E0C21AD108C0
:1002A000E108F10888EE880E83E0981EA11CB11CBD
:1002B000E4CFFF90EF90DF90CF90BF90AF909F90F2
:1002C0008F900895AF92BF92CF92DF92EF92FF92FC
:1002D0000F931F93CF93DF936C017B018B01040F6E
:1002E000151FEB015E01AE18BF08C017D10759F00A
:1002F0006991D601ED91FC910190F081E02DC6014C
:100300000995892B79F7C501DF91CF911F910F9145
:10031000FF90EF90DF90CF90BF90AF900895FC01D9
:10032000538D448D252F30E0842F90E0821B930B5A
:10033000541710F0CF96089501970895FC01918D00
:10034000828D981761F0A28DAE0FBF2FB11D5D9603
:100350008C91928D9F5F9F73928F90E008958FEFA5
:100360009FEF0895FC01918D828D981731F0828D59
:10037000E80FF11D858D90E008958FEF9FEF0895B0
:10038000FC01918D228D892F90E0805C9F4F821B14
:1003900091098F739927089582E491E00E94C0012A
:1003A00021E0892B09F420E0822F089580E090E07D
:1003B000892B29F00E94CC0181110C940000089532
:1003C000FC01A48DA80FB92FB11DA35ABF4F2C91CA
:1003D000848D90E001968F739927848FA689B789C1
:1003E0002C93A089B1898C91837080648C93938DB8
:1003F000848D981306C00288F389E02D80818F7D5B
:1004000080830895EF92FF920F931F93CF93DF9312
:10041000EC0181E0888F9B8D8C8D98131AC0E88940
:10042000F989808185FF15C09FB7F894EE89FF890F
:100430006083E889F98980818370806480839FBFAD
:1004400081E090E0DF91CF911F910F91FF90EF90AD
:100450000895F62E0B8D10E00F5F1F4F0F731127BD
:10046000E02E8C8D8E110CC00FB607FCFACFE889F8
:10047000F989808185FFF5CFCE010E94E001F1CF9F
:10048000EB8DEC0FFD2FF11DE35AFF4FF0829FB76C
:10049000F8940B8FEA89FB8980818062CFCFCF935C
:1004A000DF93EC01888D8823B9F0AA89BB89E8899C
:1004B000F9898C9185FD03C0808186FD0DC00FB642
:1004C00007FCF7CF8C9185FFF2CF808185FFEDCFC0
:1004D000CE010E94E001E9CFDF91CF910895FC01A8
:1004E00001900020E9F73197AF01481B590BBC017F
:1004F00082E491E00C9462011F920F920FB60F926A
:1005000011242F933F938F939F93AF93BF93809129
:100510003A0190913B01A0913C01B0913D01309195
:10052000390123E0230F2D3758F50196A11DB11D88
:100530002093390180933A0190933B01A0933C01B1
:10054000B0933D0180913E0190913F01A091400107
:10055000B09141010196A11DB11D80933E01909380
:100560003F01A0934001B0934101BF91AF919F9192
:100570008F913F912F910F900FBE0F901F90189564
:1005800026E8230F0296A11DB11DD2CF1F920F9214
:100590000FB60F9211242F933F934F935F936F9356
:1005A0007F938F939F93AF93BF93EF93FF9380912C
:1005B0002B0190912C01A0912D01B0912E01892B3E
:1005C0008A2B8B2BD1F190912601E0912701F0919C
:1005D000280180818927808380912B0190912C01B3
:1005E000A0912D01B0912E01181619061A061B06AE
:1005F0009CF480912B0190912C01A0912D01B09140
:100600002E010197A109B10980932B0190932C0130
:10061000A0932D01B0932E01FF91EF91BF91AF9167
:100620009F918F917F916F915F914F913F912F910A
:100630000F900FBE0F901F90189580910001E2E778
:10064000F0E0E4919FEF90930001E13051F030F041
:10065000E23069F060E00E948D00DECF10926E0003
:10066000F9CF90916F009D7F90936F00F3CF9091A1
:1006700070009D7F9093700091E09093B0009091F6
:10068000B100987F94609093B1001092B300E2CFD4
:100690001F920F920FB60F9211242F933F934F93F7
:1006A0005F936F937F938F939F93AF93BF93EF93DA
:1006B000FF9382E491E00E94E001FF91EF91BF91EE
:1006C000AF919F918F917F916F915F914F913F91EA
:1006D0002F910F900FBE0F901F9018951F920F92A1
:1006E0000FB60F9211242F938F939F93EF93FF9345
:1006F000E0915201F09153018081E0915801F09115
:10070000590182FD1BC0908180915B018F5F8F73C7
:1007100020915C01821741F0E0915B01F0E0EE5B1B
:10072000FE4F958F80935B01FF91EF919F918F9189
:100730002F910F900FBE0F901F9018958081F4CFCE
:10074000CF92DF92EF92FF920F931F93E82FF92F32
:1007500005C0015011092109310961F190819623E9
:100760009417B9F305C0015011092109310911F19C
:10077000908196239413F7CFC12CD12CE12CF12C2E
:100780000AC08FEFC81AD80AE80AF80A0C151D0526
:100790002E053F0579F080818623841791F36C2D17
:1007A0007D2D8E2D9F2D1F910F91FF90EF90DF904B
:1007B000CF90089560E070E080E090E01F910F918D
:1007C000FF90EF90DF90CF900895CF93DF93CDB758
:1007D000DEB7A1970FB6F894DEBF0FBECDBF7894F9
:1007E00084B5826084BD84B5816084BD85B5826036
:1007F00085BD85B5816085BD80916E0081608093E7
:100800006E0010928100809181008260809381004F
:10081000809181008160809381008091800081605F
:10082000809380008091B10084608093B1008091BA
:10083000B00081608093B00080917A0084608093E2
:100840007A0080917A00826080937A0080917A00A9
:10085000816080937A0080917A00806880937A002A
:100860001092C100E0915201F091530182E0808327
:10087000E0914E01F0914F011082E0915001F09112
:1008800051018FEC808310925A01E0915601F09152
:10089000570186E08083E0915401F09155018081F9
:1008A00080618083E0915401F091550180818860DE
:1008B0008083E0915401F0915501808180688083AC
:1008C000E0915401F091550180818F7D808360E03B
:1008D00082E00E94D90061E083E00E94D90062E1D9
:1008E000462E512C612C712C7AE1872E912CA12C53
:1008F000B12C58EA252E50E0352E60E083E00E94AE
:100900008D0062E070E080E090E00E942F0161E0E5
:1009100083E00E948D0060E070E0CB010E942F0117
:1009200060E083E00E948D00EDE9F0E06491E9E889
:10093000F0E08491E82FF0E0EE0FFF1FE859FF4F41
:100940008591949100E412E42FE030E0462F0E945C
:10095000A003611571058105910529F06F5F7F4F37
:100960008F4F9F4F9F709B0177FF02C02F5F3F4FBC
:10097000B90175956795072E000C880B990B0E949D
:10098000CA0626E933E44BE05DE30E942E070E948D
:1009900092066B01709338016093370162E070E05A
:1009A00080E090E00E942F01F4EFCF16F1E0DF0627
:1009B000A8F083E191E00E946F028EE191E00E9435
:1009C0006F02E0E0F0E0EF2B09F497CF0E94CC013A
:1009D000882309F48ECF0E9400008BCF9601DD0C96
:1009E000440B550B19A28E010F5D1F4FCA01B901AF
:1009F0002AE030E040E050E00E946106605DF801CE
:100A000062938F01211531054105510579F7309722
:100A100019F0CF010E946F0281E291E00E946F0203
:100A20008EE191E00E946F02809137019091380130
:100A300045973CF6809100018D3031F5E2E7F0E01A
:100A4000149117FDC2C061E08DE00E94D90011230E
:100A500009F48CC0123009F09DC08091B100887FEC
:100A600085608093B1008EEE8093B30080922B015D
:100A700090922C01A0922D01B0922E0180917000D5
:100A8000826080937000A1C08F3F09F09EC08DE00E
:100A900080930001E2E7F0E014911F3F09F495C054
:100AA000113021F150F0123009F43EC017FD8DC015
:100AB00061E08DE00E94D900CDCF14BC15BC84B597
:100AC000826084BD85B5816085BDE4E9F0E08491F4
:100AD000E82FF0E0EE0FFF1FE358FF4F8591949150
:100AE000F101849180932A0110E0ADCF1092800033
:100AF00010928100809181008860809381008091B4
:100B00008100816080938100E4E9F0E08491E82F26
:100B1000F0E0EE0FFF1FE358FF4F85919491F10134
:100B20008491809329018FCF1092B0001092B10070
:100B30008091B00082608093B0008091B1008160AC
:100B40008093B100E4E9F0E08491E82FF0E0EE0F4B
:100B5000FF1FE358FF4F8591949190932801809354
:100B60002701F1018491809326016DCF85B5887F9F
:100B7000846085BD86E787BD809233019092340101
:100B8000A0923501B092360180916E008260809310
:100B90006E001BC01130B1F580918100887F8160AB
:100BA000809381008AEB97E7909389008093880077
:100BB00080922F0190923001A0923101B0923201C7
:100BC00080916F00826080936F0020913701309197
:100BD0003801032E000C440B550B225031094109FA
:100BE0005109A6E2B2E00E945606A30192010E94BA
:100BF0003706CA01B9016E5C7F4F8F4F9F4F0E942D
:100C00002F01DFCE123021F01111DFCF8AEBB3CFED
:100C10008AEB2ACFE2E4F1E01382128288EE93E0BD
:100C2000A0E0B0E084839583A683B78385E091E05C
:100C30009183808385EC90E09587848784EC90E0B5
:100C40009787868780EC90E0918B808B81EC90E099
:100C5000938B828B82EC90E0958B848B86EC90E07A
:100C6000978B868B118E128E138E148E0895052EFF
:100C700097FB1EF400940E944E0657FD07D00E9479
:100C8000610607FC03D04EF40C944E065095409537
:100C9000309521953F4F4F4F5F4F08959095809528
:100CA000709561957F4F8F4F9F4F08950E948306E7
:100CB000A59F900DB49F900DA49F800D911D1124B0
:100CC0000895A1E21A2EAA1BBB1BFD010DC0AA1F8D
:100CD000BB1FEE1FFF1FA217B307E407F50720F0A5
:100CE000A21BB30BE40BF50B661F771F881F991F20
:100CF0001A9469F760957095809590959B01AC0169
:100D0000BD01CF010895A29FB001B39FC001A39F71
:100D1000700D811D1124911DB29F700D811D112434
:100D2000911D08950E9499066894B1110C942807AA
:100D300008950E940D0788F09F5798F0B92F9927C2
:100D4000B751B0F0E1F0660F771F881F991F1AF0B6
:100D5000BA95C9F714C0B13091F00E942707B1E0ED
:100D600008950C942707672F782F8827B85F39F0EC
:100D7000B93FCCF3869577956795B395D9F73EF44F
:100D800090958095709561957F4F8F4F9F4F0895F7
:100D9000E89409C097FB3EF4909580957095619515
:100DA0007F4F8F4F9F4F9923A9F0F92F96E9BB27CB
:100DB0009395F695879577956795B795F111F8CF47
:100DC000FAF4BB0F11F460FF1BC06F5F7F4F8F4FB2
:100DD0009F4F16C0882311F096E911C0772321F0A8
:100DE0009EE8872F762F05C0662371F096E8862F40
:100DF00070E060E02AF09A95660F771F881FDAF797
:100E0000880F9695879597F9089557FD9058440F48
:100E1000551F59F05F3F71F04795880F97FB991F59
:100E200061F09F3F79F08795089512161306140616
:100E3000551FF2CF4695F1DF08C0161617061806A3
:100E4000991FF1CF86957105610508940895E8947E
:100E5000BB2766277727CB0197F908950E944107A2
:100E60000C94B2070E94A40738F00E94AB0720F050
:100E7000952311F00C949B070C94A10711240C945A
:100E800028070E94050770F3959FC1F3950F50E066
:100E9000551F629FF001729FBB27F00DB11D639F2C
:100EA000AA27F00DB11DAA1F649F6627B00DA11DD2
:100EB000661F829F2227B00DA11D621F739FB00D78
:100EC000A11D621F839FA00D611D221F749F3327E8
:100ED000A00D611D231F849F600D211D822F762F81
:100EE0006A2F11249F5750409AF0F1F088234AF05E
:100EF000EE0FFF1FBB1F661F771F881F91505040CA
:100F0000A9F79E3F510580F00C949B070C9428078D
:100F10005F3FE4F3983ED4F3869577956795B79550
:100F2000F795E7959F5FC1F7FE2B880F911D96956A
:100F3000879597F9089597F99F6780E870E060E0DA
:100F400008959FEF80EC089500240A941616170662
:100F500018060906089500240A94121613061406AA
:100F600005060895092E0394000C11F4882352F00D
:100F7000BB0F40F4BF2B11F460FF04C06F5F7F4FC5
:100F80008F4F9F4F0895EE0FFF1F0590F491E02DB6
:060F90000994F894FFCF64
:100F9600FF00000000020262018F014F02C0019EA5
:100FA60001B2012D2D2D2D2D2D2D2D2D2D000D0AAE
:060FB6000020636D000045
:00000001FF
