:100000000C9461000C9473000C9473000C947300B6
:100010000C9473000C9473000C9473000C94730094
:100020000C9473000C9473000C9473000C94730084
:100030000C9473000C9473000C9473000C94730074
:100040000C945A010C9473000C9473000C9473007C
:100050000C9473000C9473000C9473000C94730054
:100060000C9473000C947300000000002300260021
:10007000290000000000240027002A0000000000E2
:10008000250028002B0004040404040404040202D4
:100090000202020203030303030301020408102007
:1000A0004080010204081020010204081020000012
:1000B0000008000201000003040700000000000027
:1000C000000011241FBECFEFD8E0DEBFCDBF21E07E
:1000D000A0E0B1E001C01D92AB30B207E1F70E9491
:1000E000A4010C9449020C940000833081F028F4A0
:1000F000813099F08230A9F008958730A9F08830D6
:10010000C9F08430B1F4809180008F7D03C080916C
:1001100080008F7780938000089584B58F7784BDA9
:10012000089584B58F7DFBCF8091B0008F77809349
:10013000B00008958091B0008F7DF9CF1F93CF93C9
:10014000DF93282F30E0F901E255FF4F8491F90148
:10015000E656FF4FD491F901EA57FF4FC491CC23E3
:10016000A9F0162F81110E947500EC2FF0E0EE0F20
:10017000FF1FE458FF4FA591B4918FB7F894EC910D
:10018000111108C0D095DE23DC938FBFDF91CF9192
:100190001F910895DE2BF8CFCF93DF9390E0FC0101
:1001A000E656FF4F24918A579F4FFC018491882384
:1001B000D1F090E0880F991FFC01EE58FF4FA591F8
:1001C000B491FC01E458FF4FC591D49161110EC068
:1001D0009FB7F8948C91E22FE0958E238C93288121
:1001E000E223E8839FBFDF91CF9108958FB7F89402
:1001F000EC91E22BEC938FBFF6CF1F93CF93DF935D
:10020000182FEB0161E00E94CC00209739F460E0E8
:10021000812FDF91CF911F910C949E00CF3FD1058C
:1002200011F461E0F5CFE12FF0E0E255FF4FE491EA
:10023000E33031F140F4E130B1F0E230E1F0C038C8
:10024000D1057CF7E4CFE73029F1E83059F1E4300B
:10025000B1F780918000806280938000D0938B0002
:10026000C0938A0004C084B5806884BDC7BDDF9197
:10027000CF911F91089584B5806284BDC8BDF7CF2A
:1002800080918000806880938000D0938900C09323
:100290008800EDCF8091B00080688093B000C0935B
:1002A000B300E5CF8091B00080628093B000C0932E
:1002B000B400DDCF1F920F920FB60F9211242F932F
:1002C0003F938F939F93AF93BF938091070190913A
:1002D0000801A0910901B0910A013091060123E0C3
:1002E000230F2D3758F50196A11DB11D209306014E
:1002F0008093070190930801A0930901B0930A012C
:100300008091020190910301A0910401B091050137
:100310000196A11DB11D8093020190930301A0934A
:100320000401B0930501BF91AF919F918F913F91CF
:100330002F910F900FBE0F901F90189526E8230F56
:100340000296A11DB11DD2CF789484B5826084BD80
:1003500084B5816084BD85B5826085BD85B58160C9
:1003600085BD80916E00816080936E001092810047
:100370008091810082608093810080918100816002
:1003800080938100809180008160809380008091C3
:10039000B10084608093B1008091B000816080934F
:1003A000B00080917A00846080937A0080917A0016
:1003B000826080937A0080917A00816080937A00D5
:1003C00080917A00806880937A001092C10060E08A
:1003D00082E00E94CC0061E089E00E94CC0061E0F4
:1003E0008AE00E94CC0020E4822E00EB10E03CE981
:1003F000E32E30E0F32E48E8C42E40E0D42E50E047
:10040000A52E50E0B52E80927C0080917A00806409
:1004100080937A0080917A0086FDFCCFC0917800AD
:10042000D0917900D7FD2396D595C795D595C795D9
:10043000D0930101C0930001F8018491F7019490D9
:10044000F60174907720F1F081110E947500E72D7C
:10045000F0E0EE0FFF1FE859FF4FA591B4918C918A
:10046000982281F070E060E089E00E94FD00BE010A
:100470008AE00E94FD00A114B10409F4C4CF0E94D7
:100480000000C1CFBE0189E00E94FD0070E060E085
:06049000EFCFF894FFCF4E
:00000001FF
