:100000000C945D000C9485000C9485000C94850084
:100010000C9485000C9485000C9485000C9485004C
:100020000C9485000C9485000C9485000C9485003C
:100030000C9485000C9485000C9485000C9485002C
:100040000C941A030C9485000C948A030C9464039A
:100050000C9485000C9485000C9485000C9485000C
:100060000C9485000C94850000000008000201003B
:100070000003040700000000000000000000000072
:10008000250028002B0000000000240027002A0083
:10009000040404040404040402020202020203032E
:1000A0000303030301020408102040800102040836
:1000B0001020010204081020D50411241FBECFEF28
:1000C000D8E0DEBFCDBF11E0A0E0B1E0E8E5FAE0A6
:1000D00002C005900D92A632B107D9F721E0A6E241
:1000E000B1E001C01D92A23DB207E1F710E0CDE5FD
:1000F000D0E004C02197FE010E942405CC35D10731
:10010000C9F70E94BC030C942A050C94000090E0EF
:10011000FC01EC55FF4F249180579F4FFC018491C7
:10012000882399F090E0880F991FFC01EA57FF4F50
:10013000A591B491FC01E458FF4F859194918FB73C
:10014000F894EC91E22BEC938FBF089590E0FC01C2
:10015000E859FF4F2491FC01EC55FF4F3491FC010D
:10016000E057FF4FE491EE23C9F0222339F023300A
:1001700001F1A8F4213019F1223029F1F0E0EE0F5D
:10018000FF1FE458FF4FA591B4918FB7F894EC91FD
:10019000611126C030953E233C938FBF08952730D0
:1001A000A9F02830C9F0243049F7809180008F7D74
:1001B00003C0809180008F7780938000DFCF84B56B
:1001C0008F7784BDDBCF84B58F7DFBCF8091B0006E
:1001D0008F778093B000D2CF8091B0008F7DF9CF20
:1001E0003E2BDACF1F93CF93DF93182FEB010E94A2
:1001F0008700209739F460E0812FDF91CF911F9124
:100200000C94A600CF3FD10511F461E0F5CFE12FAA
:10021000F0E0E859FF4FE491E33031F140F4E13090
:10022000B1F0E230E1F0C038D1057CF7E4CFE7303F
:1002300029F1E83059F1E430B1F780918000806213
:1002400080938000D0938B00C0938A0004C084B553
:10025000806884BDC7BDDF91CF911F91089584B59B
:10026000806284BDC8BDF7CF809180008068809394
:100270008000D0938900C0938800EDCF8091B000BA
:1002800080688093B000C093B300E5CF8091B00048
:1002900080628093B000C093B400DDCF8E50806444
:1002A00080937C0080917A00806480937A008091B2
:1002B0007A0086FDFCCF80917800909179000895B6
:1002C0003FB7F8948091310190913201A0913301B0
:1002D000B091340126B5A89B05C02F3F19F00196B7
:1002E000A11DB11D3FBFBA2FA92F982F8827BC0190
:1002F000CD01620F711D811D911D42E0660F771FB8
:10030000881F991F4A95D1F70895AF92BF92CF9257
:10031000DF92EF92FF920F931F93CF93DF936C01C5
:100320007B018B01040F151FEB015E01AE18BF08A6
:10033000C017D10759F06991D601ED91FC91019058
:10034000F081E02DC6010995892B79F7C501DF9170
:10035000CF911F910F91FF90EF90DF90CF90BF90C2
:10036000AF900895FC01538D448D252F30E0842FEC
:1003700090E0821B930B541710F0CF9608950197CD
:100380000895FC01918D828D981761F0A28DAE0FBA
:10039000BF2FB11D5D968C91928D9F5F9F73928F41
:1003A00090E008958FEF9FEF0895FC01918D828D6D
:1003B000981731F0828DE80FF11D858D90E008953A
:1003C0008FEF9FEF0895FC01918D228D892F90E092
:1003D000805C9F4F821B91098F739927089585E355
:1003E00091E00E94E30121E0892B09F420E0822FB3
:1003F000089580E090E0892B29F00E94EF0181119F
:100400000C9400000895FC01A48DA80FB92FB11D14
:10041000A35ABF4F2C91848D90E001968F7399273A
:10042000848FA689B7892C93A089B1898C91837018
:1004300080648C93938D848D981306C00288F38911
:10044000E02D80818F7D80830895EF92FF920F933E
:100450001F93CF93DF93EC0181E0888F9B8D8C8D70
:1004600098131AC0E889F989808185FF15C09FB764
:10047000F894EE89FF896083E889F9898081837027
:10048000806480839FBF81E090E0DF91CF911F91D6
:100490000F91FF90EF900895F62E0B8D10E00F5FF7
:1004A0001F4F0F731127E02E8C8D8E110CC00FB6CD
:1004B00007FCFACFE889F989808185FFF5CFCE0165
:1004C0000E940302F1CFEB8DEC0FFD2FF11DE35ADB
:1004D000FF4FF0829FB7F8940B8FEA89FB898081E8
:1004E0008062CFCFCF93DF93EC01888D8823B9F062
:1004F000AA89BB89E889F9898C9185FD03C080812F
:1005000086FD0DC00FB607FCF7CF8C9185FFF2CFAB
:10051000808185FFEDCFCE010E940302E9CFDF91FC
:10052000CF910895FC0101900020E9F73197AF01C8
:10053000481B590BBC0185E391E00C9485018F9217
:100540009F92AF92BF92CF92DF92EF92FF920F9362
:100550001F93CF93DF93CDB7DEB7A1970FB6F89473
:10056000DEBF0FBECDBF6B017C01F7FE41C06DE267
:1005700085E391E00E9425028C0122273327A901FF
:100580002C193D094E095F0919A2CE0181967C0103
:100590009AE0892E912CA12CB12CCA01B901A50198
:1005A00094010E940205605DF70162937F012115AD
:1005B00031054105510589F790E080E0309719F049
:1005C000CF010E949202800F911FA1960FB6F8945E
:1005D000DEBF0FBECDBFDF91CF911F910F91FF9076
:1005E000EF90DF90CF90BF90AF909F908F90089545
:1005F000AC019B0119A28E010F5D1F4F8AE0C82E2E
:10060000D12CE12CF12CCA01B901A70196010E945D
:100610000205605DF80162938F01211531054105E6
:10062000510589F790E080E0309779F2CF010E9480
:100630009202CBCF1F920F920FB60F9211242F93DD
:100640003F938F939F93AF93BF9380912D01909190
:100650002E01A0912F01B091300130912C0123E0A7
:10066000230F2D3758F50196A11DB11D20932C01A4
:1006700080932D0190932E01A0932F01B093300110
:100680008091310190913201A0913301B0913401F8
:100690000196A11DB11D8093310190933201A09369
:1006A0003301B0933401BF91AF919F918F913F91EE
:1006B0002F910F900FBE0F901F90189526E8230FD3
:1006C0000296A11DB11DD2CF1F920F920FB60F92AD
:1006D00011242F933F934F935F936F937F938F9347
:1006E0009F93AF93BF93EF93FF9385E391E00E94B5
:1006F0000302FF91EF91BF91AF919F918F917F91F5
:100700006F915F914F913F912F910F900FBE0F907E
:100710001F9018951F920F920FB60F9211242F93CE
:100720008F939F93EF93FF93E0914501F0914601E2
:100730008081E0914B01F0914C0182FD1BC09081C2
:1007400080914E018F5F8F7320914F01821741F08E
:10075000E0914E01F0E0EB5CFE4F958F80934E01EF
:10076000FF91EF919F918F912F910F900FBE0F905E
:100770001F9018958081F4CF789484B5826084BDF1
:1007800084B5816084BD85B5826085BD85B5816095
:1007900085BD80916E00816080936E001092810013
:1007A00080918100826080938100809181008160CE
:1007B000809381008091800081608093800080918F
:1007C000B10084608093B1008091B000816080931B
:1007D000B00080917A00846080937A0080917A00E2
:1007E000826080937A0080917A00816080937A00A1
:1007F00080917A00806880937A001092C100E09125
:100800004501F091460182E08083E0914101F09141
:1008100042011082E0914301F09144018FEC80830A
:1008200010924D01E0914901F0914A0186E08083E8
:10083000E0914701F0914801808180618083E091DF
:100840004701F0914801808188608083E0914701F1
:10085000F0914801808180688083E0914701F091A8
:10086000480180818F7D80838BE00E94870089E032
:100870000E9487008AE00E94870040E0E42E40E06A
:10088000F42E80E10E944E0197FD03968C01159590
:1008900007951595079510932B0100932A018FE07A
:1008A0000E944E0197FD03966C01D594C794D59490
:1008B000C794D0922901C09228018EE00E944E0177
:1008C00097FD0396EC01D595C795D595C795D0931F
:1008D0002701C0932601B8018BE00E94F200B60107
:1008E00089E00E94F200BE018AE00E94F20082E1EB
:1008F00091E00E94920260912A0170912B01072ED3
:10090000000C880B990B0E949F0286E191E00E94E7
:1009100092026091280170912901072E000C880B2A
:10092000990B0E949F028CE191E00E9492026091DB
:10093000260170912701072E000C880B990B0E944D
:100940009F0282E291E00E9492020E9460014B01AC
:100950005C0194E6492E512C612C712C0E9460019F
:10096000681979098A099B09683E734081059105D8
:10097000A8F321E0421A51086108710888EE880E38
:1009800083E0981EA11CB11C411451046104710440
:1009900029F7E114F10409F474CF0E94EF018823D0
:1009A00009F46FCF0E9400006CCFE5E3F1E0138201
:1009B000128288EE93E0A0E0B0E084839583A68362
:1009C000B78384E091E09183808385EC90E0958704
:1009D000848784EC90E09787868780EC90E0918B09
:1009E000808B81EC90E0938B828B82EC90E0958BF6
:1009F000848B86EC90E0978B868B118E128E138EF3
:100A0000148E0895A1E21A2EAA1BBB1BFD010DC076
:100A1000AA1FBB1FEE1FFF1FA217B307E407F507AE
:100A200020F0A21BB30BE40BF50B661F771F881F8A
:100A3000991F1A9469F760957095809590959B0120
:100A4000AC01BD01CF010895EE0FFF1F0590F49199
:080A5000E02D0994F894FFCF9A
:100A58000000000025028501B2017202E301C10114
:100A6800D501523A20002C20473A20002C20423A47
:060A780020000D0A000041
:00000001FF
