:100000000C945D000C9485000C9485000C94850084
:100010000C9485000C9485000C9485000C9485004C
:100020000C9485000C9485000C9485000C9485003C
:100030000C9485000C9485000C9485000C9485002C
:100040000C941D020C9485000C948D020C94670294
:100050000C9485000C9485000C9485000C9485000C
:100060000C9485000C94850000000008000201003B
:100070000003040700000000000000000000000072
:10008000250028002B0000000000240027002A0083
:10009000040404040404040402020202020203032E
:1000A0000303030301020408102040800102040836
:1000B0001020010204081020420411241FBECFEFBB
:1000C000D8E0DEBFCDBF11E0A0E0B1E0E2E3F9E0AF
:1000D00002C005900D92A631B107D9F721E0A6E143
:1000E000B1E001C01D92AE3BB207E1F710E0CDE5F3
:1000F000D0E004C02197FE010E949104CC35D107C5
:10010000C9F70E94BF020C9497040C940000EFEA18
:10011000F0E02491EBE9F0E08491882399F090E0FD
:10012000880F991FFC01EA57FF4FA591B491FC017C
:10013000E458FF4F859194918FB7F894EC91E22B9E
:10014000EC938FBF0895E3E7F0E02491EFEAF0E04D
:100150009491EBE9F0E0E491EE23C9F0222339F029
:10016000233001F1A8F4213019F1223029F1F0E017
:10017000EE0FFF1FE458FF4FA591B4912FB7F894ED
:10018000EC91811126C090959E239C932FBF0895DA
:100190002730A9F02830C9F0243049F72091800099
:1001A0002F7D03C0209180002F7720938000DFCF28
:1001B00024B52F7724BDDBCF24B52F7DFBCF209135
:1001C000B0002F772093B000D2CF2091B0002F7DC8
:1001D000F9CF9E2BDACF3FB7F8948091BA01909176
:1001E000BB01A091BC01B091BD0126B5A89B05C083
:1001F0002F3F19F00196A11DB11D3FBFBA2FA92FA6
:10020000982F8827BC01CD01620F711D811D911DA2
:1002100042E0660F771F881F991F4A95D1F708950E
:10022000AF92BF92CF92DF92EF92FF920F931F9304
:10023000CF93DF936C017B018B01040F151FEB0142
:100240005E01AE18BF08C017D10759F06991D601F9
:10025000ED91FC910190F081E02DC6010995892B6B
:1002600079F7C501DF91CF911F910F91FF90EF902A
:10027000DF90CF90BF90AF900895FC01538D448DD7
:10028000252F30E0842F90E0821B930B541710F041
:10029000CF96089501970895FC01918D828D98174E
:1002A00061F0A28DAE0FBF2FB11D5D968C91928D26
:1002B0009F5F9F73928F90E008958FEF9FEF089557
:1002C000FC01918D828D981731F0828DE80FF11D20
:1002D000858D90E008958FEF9FEF0895FC01918D3B
:1002E000228D892F90E0805C9F4F821B91098F7334
:1002F0009927089586E191E00E946E0121E0892B03
:1003000009F420E0822F089580E090E0892B29F005
:100310000E947A0181110C9400000895FC01A48DC3
:10032000A80FB92FB11DA35ABF4F2C91848D90E017
:1003300001968F739927848FA689B7892C93A089FA
:10034000B1898C91837080648C93938D848D981384
:1003500006C00288F389E02D80818F7D8083089517
:10036000EF92FF920F931F93CF93DF93EC0181E005
:10037000888F9B8D8C8D98131AC0E889F9898081AC
:1003800085FF15C09FB7F894EE89FF896083E889DF
:10039000F98980818370806480839FBF81E090E0D1
:1003A000DF91CF911F910F91FF90EF900895F62E5E
:1003B0000B8D10E00F5F1F4F0F731127E02E8C8DF8
:1003C0008E110CC00FB607FCFACFE889F98980813D
:1003D00085FFF5CFCE010E948E01F1CFEB8DEC0FA2
:1003E000FD2FF11DE35AFF4FF0829FB7F8940B8F5A
:1003F000EA89FB8980818062CFCFCF93DF93EC01C4
:10040000888D8823B9F0AA89BB89E889F9898C91FC
:1004100085FD03C0808186FD0DC00FB607FCF7CFB8
:100420008C9185FFF2CF808185FFEDCFCE010E94B8
:100430008E01E9CFDF91CF9108951F920F920FB6F1
:100440000F9211242F933F938F939F93AF93BF935A
:100450008091B6019091B701A091B801B091B90116
:100460003091B50123E0230F2D3758F50196A11DDA
:10047000B11D2093B5018093B6019093B701A0936D
:10048000B801B093B9018091BA019091BB01A091DC
:10049000BC01B091BD010196A11DB11D8093BA01AF
:1004A0009093BB01A093BC01B093BD01BF91AF91EC
:1004B0009F918F913F912F910F900FBE0F901F90A2
:1004C000189526E8230F0296A11DB11DD2CF1F92C9
:1004D0000F920FB60F9211242F933F934F935F9378
:1004E0006F937F938F939F93AF93BF93EF93FF93FC
:1004F00086E191E00E948E01FF91EF91BF91AF9153
:100500009F918F917F916F915F914F913F912F912B
:100510000F900FBE0F901F9018951F920F920FB65D
:100520000F9211242F938F939F93EF93FF93E0915A
:100530002601F09127018081E0912C01F0912D019D
:1005400082FD1BC0908180912F018F5F8F7320915E
:100550003001821741F0E0912F01F0E0EA5EFE4F9A
:10056000958F80932F01FF91EF919F918F912F9104
:100570000F900FBE0F901F9018958081F4CFCF93EE
:10058000DF93CDB7DEB7A1970FB6F894DEBF0FBEED
:10059000CDBF789484B5826084BD84B5816084BD0C
:1005A00085B5826085BD85B5816085BD80916E0011
:1005B000816080936E001092810080918100826042
:1005C000809381008091810081608093810080917F
:1005D00080008160809380008091B100846080936E
:1005E000B1008091B00081608093B00080917A006A
:1005F000846080937A0080917A00826080937A0090
:1006000080917A00816080937A0080917A0080687E
:1006100080937A001092C100E0912601F0912701A9
:1006200082E08083E0912201F09123011082E09129
:100630002401F09125018FEC808310922E01E0912E
:100640002A01F0912B0186E08083E0912801F0914E
:100650002901808180618083E0912801F091290146
:10066000808188608083E0912801F0912901808158
:1006700080688083E0912801F091290180818F7D3D
:1006800080830E94870023E7222E20E0322E3AE06A
:10069000432E512C612C712C00E010E020E42093BB
:1006A0007C0080917A00806480937A0080917A0047
:1006B00086FDFCCFE0907800F0907900F7FE03C053
:1006C00083E0E80EF11CF594E794F594E794F0923A
:1006D000B401E092B3010E948700E114F10409F033
:1006E00073C080E00E94A300C090B301D090B40119
:1006F0000D2C000CEE08FF08F7FEAEC06DE286E19F
:1007000091E00E94B00122273327A9012C193D094D
:100710004E095F0919A2CE0181967C01CA01B90177
:10072000A30192010E946F04605DF70162937F0153
:10073000211531054105510589F7E114F10461F0F6
:1007400001900020E9F73197AF014E195F09B70119
:1007500086E191E00E94100142E050E062E171E028
:1007600086E191E00E9410010E94EB004B015C01C8
:1007700084E6C82ED12CE12CF12C0E94EB006819E4
:1007800079098A099B09683E734081059105A8F3A0
:10079000F1E0CF1AD108E108F10828EE820E23E03B
:1007A000921EA11CB11CC114D104E104F10429F76B
:1007B0000115110509F472CF0E947A01882309F40A
:1007C0006DCF0E9400006ACF9FEFE916F10411F48B
:1007D00081E088CFF1018491833021F148F48130A8
:1007E000B9F08230D1F0F0E8EF16F1048CF779CF50
:1007F000873011F1883041F18430A9F78091800071
:10080000806280938000F0928B00E0928A006CCF2F
:1008100084B5806884BDE7BC67CF84B5806284BD41
:10082000E8BC62CF80918000806880938000F09265
:100830008900E092880058CF8091B0008068809352
:10084000B000E092B30050CF8091B00080628093FE
:10085000B000E092B40048CFA701960119A2CE01E2
:1008600081967C01CA01B901A30192010E946F0423
:10087000605DF70162937F01211531054105510546
:1008800089F75BCFE6E1F1E01382128288EE93E014
:10089000A0E0B0E084839583A683B78384E091E0F1
:1008A0009183808385EC90E09587848784EC90E049
:1008B0009787868780EC90E0918B808B81EC90E02D
:1008C000938B828B82EC90E0958B848B86EC90E00E
:1008D000978B868B118E128E138E148E0895A1E243
:1008E0001A2EAA1BBB1BFD010DC0AA1FBB1FEE1FAA
:1008F000FF1FA217B307E407F50720F0A21BB30BF5
:10090000E40BF50B661F771F881F991F1A9469F770
:1009100060957095809590959B01AC01BD01CF01CC
:100920000895EE0FFF1F0590F491E02D0994F894BF
:02093000FFCFF7
:1009320000000000B00110013D01FD016E014C01FB
:0609420060010D0A000037
:00000001FF
