:100000000C945C000C9479000C9479000C947900A9
:100010000C9479000C9479000C9479000C9479007C
:100020000C9479000C9479000C9479000C9479006C
:100030000C9479000C9479000C9479000C9479005C
:100040000C9467010C9479000C9479000C9479005D
:100050000C9479000C9479000C9479000C9479003C
:100060000C9479000C947900000000080002010053
:100070000003040700000000000000000000000072
:10008000250028002B0000000000240027002A0083
:10009000040404040404040402020202020203032E
:1000A0000303030301020408102040800102040836
:1000B000102001020408102011241FBECFEFD8E049
:1000C000DEBFCDBF11E0A0E0B1E0E8E8F6E002C09D
:1000D00005900D92A430B107D9F721E0A4E0B1E07A
:1000E00001C01D92AD30B207E1F70E94B1010C943E
:1000F00042030C94000090E0FC01EC55FF4F24916A
:1001000080579F4FFC018491882399F090E0880FDD
:10011000991FFC01EA57FF4FA591B491FC01E458E7
:10012000FF4F859194918FB7F894EC91E22BEC936B
:100130008FBF089590E0FC01E859FF4F2491FC0126
:10014000EC55FF4F3491FC01E057FF4FE491EE2353
:10015000C9F0222339F0233001F1A8F4213019F13C
:10016000223029F1F0E0EE0FFF1FE458FF4FA59178
:10017000B4918FB7F894EC91611126C030953E236D
:100180003C938FBF08952730A9F02830C9F0243060
:1001900049F7809180008F7D03C0809180008F7728
:1001A00080938000DFCF84B58F7784BDDBCF84B5AB
:1001B0008F7DFBCF8091B0008F778093B000D2CF3E
:1001C0008091B0008F7DF9CF3E2BDACF1F93CF9374
:1001D000DF93182FEB010E947B00209739F460E039
:1001E000812FDF91CF911F910C949A00CF3FD105C1
:1001F00011F461E0F5CFE12FF0E0E859FF4FE49111
:10020000E33031F140F4E130B1F0E230E1F0C038F8
:10021000D1057CF7E4CFE73029F1E83059F1E4303B
:10022000B1F780918000806280938000D0938B0032
:10023000C0938A0004C084B5806884BDC7BDDF91C7
:10024000CF911F91089584B5806284BDC8BDF7CF5A
:1002500080918000806880938000D0938900C09353
:100260008800EDCF8091B00080688093B000C0938B
:10027000B300E5CF8091B00080628093B000C0935E
:10028000B400DDCF3FB7F8948091090190910A0145
:10029000A0910B01B0910C0126B5A89B05C02F3F82
:1002A00019F00196A11DB11D3FBFBA2FA92F982F9C
:1002B0008827BC01CD01620F711D811D911D42E097
:1002C000660F771F881F991F4A95D1F708951F92CF
:1002D0000F920FB60F9211242F933F938F939F93FA
:1002E000AF93BF938091050190910601A091070102
:1002F000B09108013091040123E0230F2D3758F508
:100300000196A11DB11D20930401809305019093D6
:100310000601A0930701B093080180910901909113
:100320000A01A0910B01B0910C010196A11DB11D14
:100330008093090190930A01A0930B01B0930C01E3
:10034000BF91AF919F918F913F912F910F900FBED1
:100350000F901F90189526E8230F0296A11DB11D3E
:10036000D2CF789484B5826084BD84B5816084BD29
:1003700085B5826085BD85B5816085BD80916E0043
:10038000816080936E001092810080918100826074
:1003900080938100809181008160809381008091B1
:1003A00080008160809380008091B10084608093A0
:1003B000B1008091B00081608093B00080917A009C
:1003C000846080937A0080917A00826080937A00C2
:1003D00080917A00816080937A0080917A008068B1
:1003E00080937A001092C1008BE00E947B0089E02C
:1003F0000E947B00412C512C32014A94C0E0D0E095
:100400000E948702A30192010E94DF028BE00E94FA
:10041000E6000E948702A30192010E94DF0289E0A8
:100420000E94E6000E9442014B015C0188ECC82E4C
:10043000D12CE12CF12C0E944201681979098A091A
:100440009B09683E734081059105A8F321E0C21A1B
:10045000D108E108F10888EE880E83E0981EA11CFF
:10046000B11CC114D104E104F10429F7209741F231
:100470000E940000C5CF8F929F92AF92BF92CF9201
:10048000DF92EF92FF92CF93DF93EC016881798145
:100490008A819B81611571058105910521F464E2D2
:1004A00079ED8BE597E02DE133EF41E050E00E94DC
:1004B000DF0249015A019B01AC01A7EAB1E40E94A5
:1004C000FE026B017C01ACEEB4EFA50194010E9429
:1004D0000C03C60ED71EE81EF91EF7FE06C081E00B
:1004E000C81AD108E10880E8F80AC882D982EA82ED
:1004F000FB82C701B6019F77DF91CF91FF90EF900C
:10050000DF90CF90BF90AF909F908F9008958F9283
:100510009F92AF92BF92CF92DF92EF92FF92609143
:100520000001709101018091020190910301611518
:1005300071058105910521F464E279ED8BE597E081
:100540002DE133EF41E050E00E94DF0249015A0102
:100550009B01AC01A7EAB1E40E94FE026B017C01A1
:10056000ACEEB4EFA50194010E940C03C60ED71E99
:10057000E81EF91EF7FE06C081E0C81AD108E1089E
:1005800080E8F80AC0920001D0920101E0920201D5
:10059000F0920301C701B6019F77FF90EF90DF90C3
:1005A000CF90BF90AF909F908F900895609300017F
:1005B0007093010180930201909303010895052E29
:1005C00097FB1EF400940E94F60257FD07D00E948C
:1005D000110307FC03D04EF40C94F602509540959D
:1005E000309521953F4F4F4F5F4F089590958095DF
:1005F000709561957F4F8F4F9F4F08950E943303F1
:10060000A59F900DB49F900DA49F800D911D112466
:100610000895B7FF0C94FE020E94FE02821B930B0A
:100620000895A1E21A2EAA1BBB1BFD010DC0AA1F33
:10063000BB1FEE1FFF1FA217B307E407F50720F04B
:10064000A21BB30BE40BF50B661F771F881F991FC6
:100650001A9469F760957095809590959B01AC010F
:10066000BD01CF010895A29FB001B39FC001A39F18
:10067000700D811D1124911DB29F700D811D1124DB
:08068000911D0895F894FFCFCD
:04068800010000006D
:00000001FF
