:100000000C9462000C947F000C947F000C947F0091
:100010000C947F000C947F000C947F000C94D6010C
:100020000C947F000C947F000C947F000C947F0054
:100030000C947F000C947F000C947F000C947F0044
:100040000C948C010C947F000C947F000C947F0026
:100050000C947F000C947F000C947F000C947F0024
:100060000C947F000C947F00000000002300260009
:1000700029000200000000240027002A00000000E0
:1000800000250028002B00040404040404040402D6
:100090000202020202030303030303010204081025
:1000A00020408001020408102001020408102000F2
:1000B0000000080002010000030407000000000027
:1000C0000000000011241FBECFEFD8E0DEBFCDBF7F
:1000D00011E0A0E0B1E0EAE4F7E002C005900D9283
:1000E000A230B107D9F721E0A2E0B1E001C01D9232
:1000F000AC31B207E1F70E9432020C94A3030C94D6
:100100000000833081F028F4813099F08230A9F02A
:1001100008958730A9F08830C9F08430B1F4809117
:1001200080008F7D03C0809180008F778093800056
:10013000089584B58F7784BD089584B58F7DFBCFF6
:100140008091B0008F778093B00008958091B000C7
:100150008F7DF9CF1F93CF93DF93282F30E0F901E4
:10016000E155FF4F8491F901E556FF4FD491F90114
:10017000E957FF4FC491CC23A9F0162F81110E949B
:100180008100EC2FF0E0EE0FFF1FE358FF4FA59129
:10019000B4918FB7F894EC91111108C0D095DE237B
:1001A000DC938FBFDF91CF911F910895DE2BF8CFA5
:1001B000CF93DF9390E0FC01E556FF4F24918957E0
:1001C0009F4FFC0184918823D1F090E0880F991F04
:1001D000FC01ED58FF4FA591B491FC01E358FF4F8E
:1001E000C591D49161110EC09FB7F8948C91E22F04
:1001F000E0958E238C932881E223E8839FBFDF91D3
:10020000CF9108958FB7F894EC91E22BEC938FBFC8
:10021000F6CF3FB7F8948091180190911901A09101
:100220001A01B0911B0126B5A89B05C02F3F19F0FC
:100230000196A11DB11D3FBFBA2FA92F982F882766
:10024000BC01CD01620F711D811D911D42E0660F41
:10025000771F881F991F4A95D1F708958F929F9213
:10026000AF92BF92CF92DF92EF92FF924B015C016F
:100270000E9409016B017C010E9409016C197D0932
:100280008E099F09683E734081059105A8F321E01E
:10029000821A9108A108B10888EEC80E83E0D81E22
:1002A000E11CF11C81149104A104B10429F7FF9011
:1002B000EF90DF90CF90BF90AF909F908F90089578
:1002C0009091000189130BC0E2E7F0E0E4919FEF09
:1002D00090930001E13049F028F0E23061F060E0F5
:1002E0000C94AA0010926E00FACF90916F009D7F3F
:1002F00090936F00F4CF909170009D7F9093700069
:1003000091E09093B0009091B100987F94609093A9
:10031000B1001092B300E3CF1F920F920FB60F926D
:1003200011242F933F938F939F93AF93BF9380910B
:10033000140190911501A0911601B091170130910F
:10034000130123E0230F2D3758F50196A11DB11D90
:10035000209313018093140190931501A09316012B
:10036000B09317018091180190911901A0911A0181
:10037000B0911B010196A11DB11D809318019093AE
:100380001901A0931A01B0931B01BF91AF919F91E6
:100390008F913F912F910F900FBE0F901F90189546
:1003A00026E8230F0296A11DB11DD2CF1F920F92F6
:1003B0000FB60F9211242F933F934F935F936F9338
:1003C0007F938F939F93AF93BF93EF93FF9380910E
:1003D000070190910801A0910901B0910A01892BB0
:1003E0008A2B8B2BD1F190910201E0910301F091C6
:1003F0000401808189278083809107019091080101
:10040000A0910901B0910A01181619061A061B06D7
:100410009CF48091070190910801A0910901B0918D
:100420000A010197A109B10980930701909308017E
:10043000A0930901B0930A01FF91EF91BF91AF9191
:100440009F918F917F916F915F914F913F912F91EC
:100450000F900FBE0F901F901895809100010E9481
:100460006001EACF789484B5826084BD84B58160F0
:1004700084BD85B5826085BD85B5816085BD80916F
:100480006E00816080936E001092810080918100E7
:1004900082608093810080918100816080938100DF
:1004A000809180008160809380008091B1008460A1
:1004B0008093B1008091B00081608093B000809102
:1004C0007A00846080937A0080917A0082608093C1
:1004D0007A0080917A00816080937A0080917A001E
:1004E000806880937A001092C10061E08DE00E94E4
:1004F000D80061E089E00E94D80060E082E00E94BC
:10050000D8005AE0652E5EE8752E62E7C62E60E0E0
:10051000D62E74E9472E70E0572EE8EAEE2EE0E082
:10052000FE2E88248A94982C54014DE9242E40E014
:10053000342EE1EBF0E08491F101D491E9E8F0E0B0
:10054000C491CC2309F4EFC081110E948100EC2FEB
:10055000F0E0EE0FFF1FE859FF4FA591B4918C9189
:10056000D82309F4E0C0CAE0D0E0809100018D30CA
:1005700029F5F601149117FDBCC061E08DE00E94E1
:10058000D800112309F488C0123009F099C0809175
:10059000B100887F86608093B1008DE88093B300BE
:1005A0008092070190920801A0920901B0920A017D
:1005B000809170008260809370009BC08F3F09F033
:1005C00098C08DE080930001F60114911F3F09F45B
:1005D00090C0113019F150F0123009F43CC017FDF1
:1005E00088C061E08DE00E94D800CECF14BC15BC5D
:1005F00084B5826084BD85B5816085BDF20184913A
:10060000E82FF0E0EE0FFF1FE358FF4F8591949124
:10061000F70184918093060110E0AFCF1092800023
:100620001092810080918100886080938100809188
:100630008100816080938100F2018491E82FF0E0D5
:10064000EE0FFF1FE358FF4F85919491F7018491BE
:100650008093050192CF1092B0001092B10080916A
:10066000B00082608093B0008091B100816080937F
:10067000B100F2018491E82FF0E0EE0FFF1FE35884
:10068000FF4F859194919093040180930301F701AA
:1006900084918093020171CF85B5887F846085BD88
:1006A0008DE887BD80920F0190921001A0921101F8
:1006B000B092120180916E00826080936E0019C02A
:1006C0001130C9F580918100887F8160809381001D
:1006D000709289006092880080920B0190920C01C8
:1006E000A0920D01B0920E0180916F008260809304
:1006F0006F0061E089E00E94AA0064E670E080E09B
:1007000090E00E942E018DE00E94600160E089E08F
:100710000E94AA0060E971E080E090E00E942E0152
:10072000219709F022CF80E090E0892B09F401CFD6
:100730000E940000FACE123021F01111DACF8AE0C7
:0A074000B0CF8AE02BCFF894FFCF72
:02074A00FF00AE
:00000001FF
