:100000000C9463000C948B000C948B000C948B006C
:100010000C948B000C948B000C948B000C9493022A
:100020000C948B000C948B000C948B000C948B0024
:100030000C948B000C948B000C948B000C948B0014
:100040000C9449020C948B000C943B030C94150304
:100050000C948B000C948B000C948B000C948B00F4
:100060000C948B000C948B000000000023002600F1
:1000700029000200000000240027002A00000000E0
:1000800000250028002B00040404040404040402D6
:100090000202020202030303030303010204081025
:1000A00020408001020408102001020408102000F2
:1000B0000000080002010000030407000000000027
:1000C000000000002C0611241FBECFEFD8E0DEBFD9
:1000D000CDBF11E0A0E0B1E0E4EEFFE002C005908A
:1000E0000D92A632B107D9F721E0A6E2B1E001C036
:1000F0001D92AD3DB207E1F710E0C3E6D0E004C0C9
:100100002197FE010E94EA07C236D107C9F70E9473
:10011000B2030C94F0070C94000090E0FC01E15550
:10012000FF4F2491FC01E556FF4F3491FC01E95744
:10013000FF4FE491EE23C9F0222339F0233001F17F
:10014000A8F4213019F1223029F1F0E0EE0FFF1F61
:10015000E358FF4FA591B4918FB7F894EC916111DA
:1001600026C030953E233C938FBF08952730A9F0D9
:100170002830C9F0243049F7809180008F7D03C07A
:10018000809180008F7780938000DFCF84B58F7758
:1001900084BDDBCF84B58F7DFBCF8091B0008F779E
:1001A0008093B000D2CF8091B0008F7DF9CF3E2BED
:1001B000DACFCF93DF9390E0FC01E556FF4F249117
:1001C00089579F4FFC0184918823D1F090E0880FDC
:1001D000991FFC01ED58FF4FA591B491FC01E35824
:1001E000FF4FC591D49161110EC09FB7F8948C91C7
:1001F000E22FE0958E238C932881E223E8839FBF32
:10020000DF91CF9108958FB7F894EC91E22BEC93A6
:100210008FBFF6CF3FB7F89480913C0190913D019C
:10022000A0913E01B0913F0126B5A89B05C02F3F8C
:1002300019F00196A11DB11D3FBFBA2FA92F982F0C
:100240008827BC01CD01620F711D811D911D42E007
:10025000660F771F881F991F4A95D1F70895AF92AF
:10026000BF92CF92DF92EF92FF920F931F93CF93A3
:10027000DF936C017B018B01040F151FEB015E0105
:10028000AE18BF08C017D10759F06991D601ED919A
:10029000FC910190F081E02DC6010995892B79F739
:1002A000C501DF91CF911F910F91FF90EF90DF90EB
:1002B000CF90BF90AF900895FC01538D448D252FB2
:1002C00030E0842F90E0821B930B541710F0CF96F0
:1002D000089501970895FC01918D828D981761F022
:1002E000A28DAE0FBF2FB11D5D968C91928D9F5F39
:1002F0009F73928F90E008958FEF9FEF0895FC0118
:10030000918D828D981731F0828DE80FF11D858DCA
:1003100090E008958FEF9FEF0895FC01918D228D5D
:10032000892F90E0805C9F4F821B91098F739927E2
:10033000089580E491E00E948D0121E0892B09F469
:1003400020E0822F089580E090E0892B29F00E9420
:10035000990181110C9400000895FC01A48DA80F4F
:10036000B92FB11DA35ABF4F2C91848D90E00196F7
:100370008F739927848FA689B7892C93A089B18917
:100380008C91837080648C93938D848D981306C0B8
:100390000288F389E02D80818F7D80830895EF921C
:1003A000FF920F931F93CF93DF93EC0181E0888F2F
:1003B0009B8D8C8D98131AC0E889F989808185FFFF
:1003C00015C09FB7F894EE89FF896083E889F989A1
:1003D00080818370806480839FBF81E090E0DF91A3
:1003E000CF911F910F91FF90EF900895F62E0B8DF6
:1003F00010E00F5F1F4F0F731127E02E8C8D8E11B1
:100400000CC00FB607FCFACFE889F989808185FF17
:10041000F5CFCE010E94AD01F1CFEB8DEC0FFD2F9A
:10042000F11DE35AFF4FF0829FB7F8940B8FEA89D2
:10043000FB8980818062CFCFCF93DF93EC01888DE1
:100440008823B9F0AA89BB89E889F9898C9185FD4F
:1004500003C0808186FD0DC00FB607FCF7CF8C91DD
:1004600085FFF2CF808185FFEDCFCE010E94AD01E7
:10047000E9CFDF91CF910895FC0101900020E9F7C9
:100480003197AF01481B590BBC0180E491E00C94FB
:100490002F011F920F920FB60F9211242F933F93AB
:1004A0008F939F93AF93BF938091380190913901BF
:1004B000A0913A01B0913B013091370123E0230F25
:1004C0002D3758F50196A11DB11D2093370180935A
:1004D000380190933901A0933A01B0933B01809188
:1004E0003C0190913D01A0913E01B0913F010196E8
:1004F000A11DB11D80933C0190933D01A0933E014D
:10050000B0933F01BF91AF919F918F913F912F91F8
:100510000F900FBE0F901F90189526E8230F02969C
:10052000A11DB11DD2CF1F920F920FB60F921124B1
:100530002F933F934F935F936F937F938F939F93EB
:10054000AF93BF93EF93FF9380912B0190912C0178
:10055000A0912D01B0912E01892B8A2B8B2BD1F1EB
:1005600090912601E0912701F0912801808189274F
:10057000808380912B0190912C01A0912D01B0914D
:100580002E01181619061A061B069CF480912B01E1
:1005900090912C01A0912D01B0912E010197A109FC
:1005A000B10980932B0190932C01A0932D01B0935E
:1005B0002E01FF91EF91BF91AF919F918F917F910C
:1005C0006F915F914F913F912F910F900FBE0F90C0
:1005D0001F90189580910001E2E7F0E0E4919FEF11
:1005E00090930001E13051F030F0E23069F060E0CA
:1005F0000E948D00DECF10926E00F9CF90916F00B7
:100600009D7F90936F00F3CF909170009D7F9093AA
:10061000700091E09093B0009091B100987F946049
:100620009093B1001092B300E2CF1F920F920FB6D9
:100630000F9211242F933F934F935F936F937F9368
:100640008F939F93AF93BF93EF93FF9380E491E0D9
:100650000E94AD01FF91EF91BF91AF919F918F915A
:100660007F916F915F914F913F912F910F900FBEAE
:100670000F901F9018951F920F920FB60F92112492
:100680002F938F939F93EF93FF93E0915001F091FD
:1006900051018081E0915601F091570182FD1BC00C
:1006A0009081809159018F5F8F7320915A01821739
:1006B00041F0E0915901F0E0E05CFE4F958F8093AE
:1006C0005901FF91EF919F918F912F910F900FBE44
:1006D0000F901F9018958081F4CFCF92DF92EF9208
:1006E000FF920F931F93E82FF92F05C001501109B6
:1006F0002109310961F1908196239417B9F305C05E
:10070000015011092109310911F1908196239413A7
:10071000F7CFC12CD12CE12CF12C0AC08FEFC81AD5
:10072000D80AE80AF80A0C151D052E053F0579F0D0
:1007300080818623841791F36C2D7D2D8E2D9F2D26
:100740001F910F91FF90EF90DF90CF90089560E0A0
:1007500070E080E090E01F910F91FF90EF90DF90AC
:10076000CF900895CF93DF93CDB7DEB7A1970FB6A3
:10077000F894DEBF0FBECDBF789484B5826084BD8F
:1007800084B5816084BD85B5826085BD85B5816095
:1007900085BD80916E00816080936E001092810013
:1007A00080918100826080938100809181008160CE
:1007B000809381008091800081608093800080918F
:1007C000B10084608093B1008091B000816080931B
:1007D000B00080917A00846080937A0080917A00E2
:1007E000826080937A0080917A00816080937A00A1
:1007F00080917A00806880937A001092C10061E055
:1008000083E00E94D90060E082E00E94D90061E0AC
:100810008DE00E94D90061E084E00E94D90061E08F
:1008200085E00E94D90061E086E00E94D90061E085
:1008300087E00E94D900E0915001F091510182E0DF
:100840008083E0914C01F0914D011082E0914E01C6
:10085000F0914F018FEC808310925801E091540188
:10086000F091550186E08083E0915201F0915301AF
:10087000808180618083E0915201F09153018081F9
:1008800088608083E0915201F091530180818068FB
:100890008083E0915201F091530180818F7D8083AC
:1008A0006AE1862E912CA12CB12C58EA252E50E01D
:1008B000352E60E083E00E948D0083E090E0019798
:1008C000F1F761E083E00E948D0083E290E0019700
:1008D000F1F760E083E00E948D00EDE9F0E06491C3
:1008E000E9E8F0E08491E82FF0E0EE0FFF1FE8590F
:1008F000FF4F8591949100E412E42FE030E0462F01
:100900000E946D03611571058105910529F06F5FE6
:100910007F4F8F4F9F4F9F709595879577956795E0
:100920000E945E072DEC3CEC48EE51E40E94B406B8
:100930000E9426072B013C01F4EF4F16F1E05F0601
:1009400061047104A8F083E191E00E943C028EE111
:1009500091E00E943C0280E090E0892B09F4A9CF4D
:100960000E949901882309F4A0CF0E9400009DCF26
:1009700019A2AC019B017E0181E2E80EF11CCA01C3
:10098000B9012AE030E040E050E00E948306605D5B
:10099000F70162937F01211531054105510579F772
:1009A000309719F0CF010E943C0281E291E00E9451
:1009B0003C028EE191E00E943C02F5E14F165104A9
:1009C000610471040CF01EC1809100018D3031F57D
:1009D000E2E7F0E0149117FDC3C061E08DE00E94F2
:1009E000D900112309F48CC0123009F09DC0809108
:1009F000B100887F85608093B1008EEE8093B30054
:100A000080922B0190922C01A0922D01B0922E0188
:100A100080917000826080937000A2C08F3F09F0C7
:100A20009FC08DE080930001E2E7F0E014911F3F4A
:100A300009F496C0113021F150F0123009F43EC093
:100A400017FD8EC061E08DE00E94D900CDCF14BCAF
:100A500015BC84B5826084BD85B5816085BDE4E93F
:100A6000F0E08491E82FF0E0EE0FFF1FE358FF4F16
:100A700085919491F101849180932A0110E0ADCF8A
:100A80001092800010928100809181008860809394
:100A9000810080918100816080938100E4E9F0E031
:100AA0008491E82FF0E0EE0FFF1FE358FF4F859190
:100AB0009491F1018491809329018FCF1092B0001D
:100AC0001092B1008091B00082608093B00080915C
:100AD000B10081608093B100E4E9F0E08491E82FF7
:100AE000F0E0EE0FFF1FE358FF4F85919491909334
:100AF000280180932701F1018491809326016DCF15
:100B000085B5887F846085BD86E787BD8092330187
:100B100090923401A0923501B092360180916E001E
:100B2000826080936E001CC0113009F047C0809134
:100B30008100887F8160809381008AEB97E79093A2
:100B400089008093880080922F0190923001A092BA
:100B50003101B092320180916F00826080936F000A
:100B6000A30192012250310941095109A6E2B2E0E4
:100B70000E94780622E130E040E050E00E945906F1
:100B800069017A0192E3C90ED11CE11CF11C0E949B
:100B90000A012B013C01C114D104E104F10431F537
:100BA00061E084E00E948D0060E085E00E948D009D
:100BB00061E086E00E948D0060E042C0123021F0CA
:100BC0001111CECF8AEBA1CF8AEB18CFE1E0CE1A7C
:100BD000D108E108F108F8EE4F0EF3E05F1E611C4A
:100BE000711CC114D104E104F104A9F20E940A01AC
:100BF0006419750986099709683E73408105910556
:100C000028F7C9CF8FE1481651046104710444F2FA
:100C10009FE1491A51086108710860E084E0EEE143
:100C20004E1651046104710478F40E948D0061E055
:100C300085E00E948D0060E086E00E948D0061E00A
:100C400087E00E948D0087CE0E948D0060E085E0E5
:100C50000E948D0060E0ADCFE0E4F1E013821282EB
:100C600088EE93E0A0E0B0E084839583A683B78309
:100C700085E091E09183808385EC90E0958784877F
:100C800084EC90E09787868780EC90E0918B808B56
:100C900081EC90E0938B828B82EC90E0958B848B3F
:100CA00086EC90E0978B868B118E128E138E148EAD
:100CB0000895052E97FB1EF400940E94700657FDC0
:100CC00007D00E94830607FC03D04EF40C947006F4
:100CD00050954095309521953F4F4F4F5F4F089568
:100CE00090958095709561957F4F8F4F9F4F089598
:100CF0000E94A506A59F900DB49F900DA49F800D06
:100D0000911D11240895A1E21A2EAA1BBB1BFD01FF
:100D10000DC0AA1FBB1FEE1FFF1FA217B307E407DA
:100D2000F50720F0A21BB30BE40BF50B661F771F32
:100D3000881F991F1A9469F7609570958095909512
:100D40009B01AC01BD01CF010895A29FB001B39FEB
:100D5000C001A39F700D811D1124911DB29F700DC4
:100D6000811D1124911D08950E94C8060C94B0079E
:100D70000E94A90758F00E94A20740F029F45F3FA3
:100D800029F00C94990751110C94E4070C949F07D7
:100D90000E94C10768F39923B1F3552391F3951B82
:100DA000550BBB27AA2762177307840738F09F5F8C
:100DB0005F4F220F331F441FAA1FA9F335D00E2EF9
:100DC0003AF0E0E832D091505040E695001CCAF766
:100DD0002BD0FE2F29D0660F771F881FBB1F261729
:100DE00037074807AB07B0E809F0BB0B802DBF0100
:100DF000FF2793585F4F3AF09E3F510578F00C94CF
:100E000099070C94E4075F3FE4F3983ED4F386958A
:100E100077956795B795F7959F5FC9F7880F911DEF
:100E20009695879597F90895E1E0660F771F881FDB
:100E3000BB1F621773078407BA0720F0621B730B8E
:100E4000840BBA0BEE1F88F7E09508950E942D07DA
:100E50006894B1110C94E40708950E94C90788F0C2
:100E60009F5798F0B92F9927B751B0F0E1F0660F6E
:100E7000771F881F991F1AF0BA95C9F714C0B130AF
:100E800091F00E94E307B1E008950C94E307672F07
:100E9000782F8827B85F39F0B93FCCF386957795DE
:100EA0006795B395D9F73EF49095809570956195C7
:100EB0007F4F8F4F9F4F0895E89409C097FB3EF4F2
:100EC00090958095709561957F4F8F4F9F4F992397
:100ED000A9F0F92F96E9BB279395F6958795779515
:100EE0006795B795F111F8CFFAF4BB0F11F460FFD5
:100EF0001BC06F5F7F4F8F4F9F4F16C0882311F02D
:100F000096E911C0772321F09EE8872F762F05C040
:100F1000662371F096E8862F70E060E02AF09A95DB
:100F2000660F771F881FDAF7880F9695879597F9D0
:100F3000089597F99F6780E870E060E008959FEF5B
:100F400080EC089500240A94161617061806090660
:100F5000089500240A94121613061406050608952F
:100F6000092E0394000C11F4882352F0BB0F40F4B7
:100F7000BF2B11F460FF04C06F5F7F4F8F4F9F4FF7
:100F8000089557FD9058440F551F59F05F3F71F079
:100F90004795880F97FB991F61F09F3F79F08795E0
:100FA0000895121613061406551FF2CF4695F1DF69
:100FB00008C0161617061806991FF1CF86957105F9
:100FC000610508940895E894BB2766277727CB012D
:100FD00097F90895EE0FFF1F0590F491E02D099405
:040FE000F894FFCFB3
:100FE400FF00000000CF012F015C011C028D016B8A
:100FF400017F012D2D2D2D2D2D2D2D2D2D000D0A93
:061004000020636D0000F6
:00000001FF
