:100000000C945C000C9479000C9479000C947900A9
:100010000C9479000C9479000C9479000C9479007C
:100020000C9479000C9479000C9479000C9479006C
:100030000C9479000C9479000C9479000C9479005C
:100040000C94CA010C9479000C9479000C947900FA
:100050000C9479000C9479000C9479000C9479003C
:100060000C9479000C947900000000080002010053
:100070000003040700000000000000000000000072
:10008000250028002B0000000000240027002A0083
:10009000040404040404040402020202020203032E
:1000A0000303030301020408102040800102040836
:1000B000102001020408102011241FBECFEFD8E049
:1000C000DEBFCDBF11E0A0E0B1E0E8E5F5E002C0A1
:1000D00005900D92AC30B107D9F721E0ACE0B1E06A
:1000E00001C01D92A531B207E1F70E9414020C94E1
:1000F000AA020C94000090E0FC01EC55FF4F249103
:1001000080579F4FFC018491882399F090E0880FDD
:10011000991FFC01EA57FF4FA591B491FC01E458E7
:10012000FF4F859194918FB7F894EC91E22BEC936B
:100130008FBF089590E0FC01E859FF4F2491FC0126
:10014000EC55FF4F3491FC01E057FF4FE491EE2353
:10015000C9F0222339F0233001F1A8F4213019F13C
:10016000223029F1F0E0EE0FFF1FE458FF4FA59178
:10017000B4918FB7F894EC91611126C030953E236D
:100180003C938FBF08952730A9F02830C9F0243060
:1001900049F7809180008F7D03C0809180008F7728
:1001A00080938000DFCF84B58F7784BDDBCF84B5AB
:1001B0008F7DFBCF8091B0008F778093B000D2CF3E
:1001C0008091B0008F7DF9CF3E2BDACFE82FF0E0A1
:1001D000E859FF4FE491E33029F150F4E130C1F0E8
:1001E000E230D9F060387105BCF560E00C949A00FB
:1001F000E73011F1E83041F1E430A1F7809180005F
:1002000080628093800070938B0060938A000895D1
:1002100084B5806884BD67BD089584B5806284BD5F
:1002200068BD0895809180008068809380007093FD
:1002300089006093880008958091B0008068809361
:10024000B0006093B30008958091B0008062809305
:10025000B0006093B400089561E0C8CF3FB7F89450
:100260008091110190911201A0911301B09114019C
:1002700026B5A89B05C02F3F19F00196A11DB11D01
:100280003FBFBA2FA92F982F8827BC01CD01620F3D
:10029000711D811D911D42E0660F771F881F991FF8
:1002A0004A95D1F708958F929F92AF92BF92CF92C5
:1002B000DF92EF92FF920E942E014B015C0180EDD4
:1002C000C82E87E0D82EE12CF12C0E942E0168194F
:1002D00079098A099B09683E734081059105A8F355
:1002E00021E0C21AD108E108F10888EE880E83E007
:1002F000981EA11CB11CC114D104E104F10429F71A
:10030000FF90EF90DF90CF90BF90AF909F908F9035
:100310000895CF93DF93EC0160E08A810E949A00F8
:1003200061E08C810E949A00C8818C2F0E947B0022
:1003300064EB70E08C2FDF91CF910C94E600CF93AB
:10034000DF93EC0161E08A810E949A0060E08C8179
:100350000E949A00C8818C2F0E947B0064EB70E0A1
:100360008C2FDF91CF910C94E600CF93DF93EC01BB
:1003700060E08A810E949A0060E08C810E949A006D
:10038000C8818C2F0E947B0060E08C2FDF91CF9181
:100390000C949A001F920F920FB60F9211242F9374
:1003A0003F938F939F93AF93BF9380910D01909153
:1003B0000E01A0910F01B091100130910C0123E0CA
:1003C000230F2D3758F50196A11DB11D20930C0167
:1003D00080930D0190930E01A0930F01B093100133
:1003E0008091110190911201A0911301B09114011B
:1003F0000196A11DB11D8093110190931201A0934C
:100400001301B0931401BF91AF919F918F913F91D0
:100410002F910F900FBE0F901F90189526E8230F75
:100420000296A11DB11DD2CF789484B5826084BD9F
:1004300084B5816084BD85B5826085BD85B58160E8
:1004400085BD80916E00816080936E001092810066
:100450008091810082608093810080918100816021
:1004600080938100809180008160809380008091E2
:10047000B10084608093B1008091B000816080936E
:10048000B00080917A00846080937A0080917A0035
:10049000826080937A0080917A00816080937A00F4
:1004A00080917A00806880937A001092C10087E082
:1004B0000E947B0088E00E947B0086E00E947B0017
:1004C00089E00E947B008AE00E947B008BE00E9412
:1004D0007B00C0E0D0E061E08CE00E949A0086E002
:1004E00091E00E949F0180E091E00E949F010E94A4
:1004F000530186E091E00E94890180E091E00E9432
:1005000089010E94530186E091E00E949F0180E0F2
:1005100091E00E9489010E94530186E091E00E94CF
:10052000890180E091E00E949F010E94530160E0F8
:100530008CE00E949A0086E091E00E94B50180E084
:1005400091E00E94B5010E945301209721F20E9480
:080550000000C1CFF894FFCFB9
:0C0558000B0009000A0006000700080064
:00000001FF
